{
  "contractName": "Hitman47",
  "abi": [
    {
      "inputs": [],
      "stateMutability": "nonpayable",
      "type": "constructor"
    },
    {
      "anonymous": false,
      "inputs": [
        {
          "indexed": true,
          "internalType": "address",
          "name": "owner",
          "type": "address"
        },
        {
          "indexed": true,
          "internalType": "address",
          "name": "approved",
          "type": "address"
        },
        {
          "indexed": true,
          "internalType": "uint256",
          "name": "tokenId",
          "type": "uint256"
        }
      ],
      "name": "Approval",
      "type": "event"
    },
    {
      "anonymous": false,
      "inputs": [
        {
          "indexed": true,
          "internalType": "address",
          "name": "owner",
          "type": "address"
        },
        {
          "indexed": true,
          "internalType": "address",
          "name": "operator",
          "type": "address"
        },
        {
          "indexed": false,
          "internalType": "bool",
          "name": "approved",
          "type": "bool"
        }
      ],
      "name": "ApprovalForAll",
      "type": "event"
    },
    {
      "anonymous": false,
      "inputs": [
        {
          "indexed": true,
          "internalType": "address",
          "name": "from",
          "type": "address"
        },
        {
          "indexed": true,
          "internalType": "address",
          "name": "to",
          "type": "address"
        },
        {
          "indexed": true,
          "internalType": "uint256",
          "name": "tokenId",
          "type": "uint256"
        }
      ],
      "name": "Transfer",
      "type": "event"
    },
    {
      "inputs": [
        {
          "internalType": "address",
          "name": "to",
          "type": "address"
        },
        {
          "internalType": "uint256",
          "name": "tokenId",
          "type": "uint256"
        }
      ],
      "name": "approve",
      "outputs": [],
      "stateMutability": "nonpayable",
      "type": "function"
    },
    {
      "inputs": [
        {
          "internalType": "address",
          "name": "owner",
          "type": "address"
        }
      ],
      "name": "balanceOf",
      "outputs": [
        {
          "internalType": "uint256",
          "name": "",
          "type": "uint256"
        }
      ],
      "stateMutability": "view",
      "type": "function",
      "constant": true
    },
    {
      "inputs": [
        {
          "internalType": "uint256",
          "name": "tokenId",
          "type": "uint256"
        }
      ],
      "name": "getApproved",
      "outputs": [
        {
          "internalType": "address",
          "name": "",
          "type": "address"
        }
      ],
      "stateMutability": "view",
      "type": "function",
      "constant": true
    },
    {
      "inputs": [],
      "name": "initialMintingCost",
      "outputs": [
        {
          "internalType": "uint256",
          "name": "",
          "type": "uint256"
        }
      ],
      "stateMutability": "view",
      "type": "function",
      "constant": true
    },
    {
      "inputs": [
        {
          "internalType": "address",
          "name": "owner",
          "type": "address"
        },
        {
          "internalType": "address",
          "name": "operator",
          "type": "address"
        }
      ],
      "name": "isApprovedForAll",
      "outputs": [
        {
          "internalType": "bool",
          "name": "",
          "type": "bool"
        }
      ],
      "stateMutability": "view",
      "type": "function",
      "constant": true
    },
    {
      "inputs": [],
      "name": "name",
      "outputs": [
        {
          "internalType": "string",
          "name": "",
          "type": "string"
        }
      ],
      "stateMutability": "view",
      "type": "function",
      "constant": true
    },
    {
      "inputs": [],
      "name": "owner",
      "outputs": [
        {
          "internalType": "address payable",
          "name": "",
          "type": "address"
        }
      ],
      "stateMutability": "view",
      "type": "function",
      "constant": true
    },
    {
      "inputs": [
        {
          "internalType": "uint256",
          "name": "tokenId",
          "type": "uint256"
        }
      ],
      "name": "ownerOf",
      "outputs": [
        {
          "internalType": "address",
          "name": "",
          "type": "address"
        }
      ],
      "stateMutability": "view",
      "type": "function",
      "constant": true
    },
    {
      "inputs": [
        {
          "internalType": "address",
          "name": "from",
          "type": "address"
        },
        {
          "internalType": "address",
          "name": "to",
          "type": "address"
        },
        {
          "internalType": "uint256",
          "name": "tokenId",
          "type": "uint256"
        }
      ],
      "name": "safeTransferFrom",
      "outputs": [],
      "stateMutability": "nonpayable",
      "type": "function"
    },
    {
      "inputs": [
        {
          "internalType": "address",
          "name": "from",
          "type": "address"
        },
        {
          "internalType": "address",
          "name": "to",
          "type": "address"
        },
        {
          "internalType": "uint256",
          "name": "tokenId",
          "type": "uint256"
        },
        {
          "internalType": "bytes",
          "name": "_data",
          "type": "bytes"
        }
      ],
      "name": "safeTransferFrom",
      "outputs": [],
      "stateMutability": "nonpayable",
      "type": "function"
    },
    {
      "inputs": [
        {
          "internalType": "address",
          "name": "operator",
          "type": "address"
        },
        {
          "internalType": "bool",
          "name": "approved",
          "type": "bool"
        }
      ],
      "name": "setApprovalForAll",
      "outputs": [],
      "stateMutability": "nonpayable",
      "type": "function"
    },
    {
      "inputs": [
        {
          "internalType": "bytes4",
          "name": "interfaceId",
          "type": "bytes4"
        }
      ],
      "name": "supportsInterface",
      "outputs": [
        {
          "internalType": "bool",
          "name": "",
          "type": "bool"
        }
      ],
      "stateMutability": "view",
      "type": "function",
      "constant": true
    },
    {
      "inputs": [],
      "name": "symbol",
      "outputs": [
        {
          "internalType": "string",
          "name": "",
          "type": "string"
        }
      ],
      "stateMutability": "view",
      "type": "function",
      "constant": true
    },
    {
      "inputs": [
        {
          "internalType": "uint256",
          "name": "tokenId",
          "type": "uint256"
        }
      ],
      "name": "tokenURI",
      "outputs": [
        {
          "internalType": "string",
          "name": "",
          "type": "string"
        }
      ],
      "stateMutability": "view",
      "type": "function",
      "constant": true
    },
    {
      "inputs": [
        {
          "internalType": "address",
          "name": "from",
          "type": "address"
        },
        {
          "internalType": "address",
          "name": "to",
          "type": "address"
        },
        {
          "internalType": "uint256",
          "name": "tokenId",
          "type": "uint256"
        }
      ],
      "name": "transferFrom",
      "outputs": [],
      "stateMutability": "nonpayable",
      "type": "function"
    },
    {
      "inputs": [
        {
          "internalType": "address",
          "name": "market",
          "type": "address"
        },
        {
          "internalType": "string",
          "name": "tokenURI",
          "type": "string"
        }
      ],
      "name": "mint",
      "outputs": [
        {
          "internalType": "uint256",
          "name": "",
          "type": "uint256"
        }
      ],
      "stateMutability": "nonpayable",
      "type": "function"
    },
    {
      "inputs": [],
      "name": "totalSupplyy",
      "outputs": [
        {
          "internalType": "uint256",
          "name": "",
          "type": "uint256"
        }
      ],
      "stateMutability": "view",
      "type": "function",
      "constant": true
    }
  ],
  "bytecode": "0x6080604052600060085560006009553480156200001b57600080fd5b506040518060400160405280600a81526020017f4869746d616e204e4654000000000000000000000000000000000000000000008152506040518060400160405280600681526020017f4849544d414e00000000000000000000000000000000000000000000000000008152508160009080519060200190620000a092919062000103565b508060019080519060200190620000b992919062000103565b50505033600760006101000a81548173ffffffffffffffffffffffffffffffffffffffff021916908373ffffffffffffffffffffffffffffffffffffffff16021790555062000218565b8280546200011190620001b3565b90600052602060002090601f01602090048101928262000135576000855562000181565b82601f106200015057805160ff191683800117855562000181565b8280016001018555821562000181579182015b828111156200018057825182559160200191906001019062000163565b5b50905062000190919062000194565b5090565b5b80821115620001af57600081600090555060010162000195565b5090565b60006002820490506001821680620001cc57607f821691505b60208210811415620001e357620001e2620001e9565b5b50919050565b7f4e487b7100000000000000000000000000000000000000000000000000000000600052602260045260246000fd5b612d2980620002286000396000f3fe608060405234801561001057600080fd5b506004361061010b5760003560e01c806370a08231116100a2578063b88d4fde11610071578063b88d4fde146102b8578063c87b56dd146102d4578063d0def52114610304578063e3edffa014610334578063e985e9c5146103525761010b565b806370a08231146102305780638da5cb5b1461026057806395d89b411461027e578063a22cb4651461029c5761010b565b806323b872dd116100de57806323b872dd146101aa57806342842e0e146101c65780636352211e146101e25780636e1ad85c146102125761010b565b806301ffc9a71461011057806306fdde0314610140578063081812fc1461015e578063095ea7b31461018e575b600080fd5b61012a60048036038101906101259190611d4b565b610382565b6040516101379190612187565b60405180910390f35b610148610464565b60405161015591906121a2565b60405180910390f35b61017860048036038101906101739190611da5565b6104f6565b6040516101859190612105565b60405180910390f35b6101a860048036038101906101a39190611d0b565b61057b565b005b6101c460048036038101906101bf9190611b99565b610693565b005b6101e060048036038101906101db9190611b99565b6106f3565b005b6101fc60048036038101906101f79190611da5565b610713565b6040516102099190612105565b60405180910390f35b61021a6107c5565b60405161022791906123c4565b60405180910390f35b61024a60048036038101906102459190611b2c565b6107cf565b60405161025791906123c4565b60405180910390f35b610268610887565b6040516102759190612120565b60405180910390f35b6102866108ad565b60405161029391906121a2565b60405180910390f35b6102b660048036038101906102b19190611c6f565b61093f565b005b6102d260048036038101906102cd9190611bec565b610955565b005b6102ee60048036038101906102e99190611da5565b6109b7565b6040516102fb91906121a2565b60405180910390f35b61031e60048036038101906103199190611caf565b610b09565b60405161032b91906123c4565b60405180910390f35b61033c610bd0565b60405161034991906123c4565b60405180910390f35b61036c60048036038101906103679190611b59565b610bd6565b6040516103799190612187565b60405180910390f35b60007f80ac58cd000000000000000000000000000000000000000000000000000000007bffffffffffffffffffffffffffffffffffffffffffffffffffffffff1916827bffffffffffffffffffffffffffffffffffffffffffffffffffffffff1916148061044d57507f5b5e139f000000000000000000000000000000000000000000000000000000007bffffffffffffffffffffffffffffffffffffffffffffffffffffffff1916827bffffffffffffffffffffffffffffffffffffffffffffffffffffffff1916145b8061045d575061045c82610c6a565b5b9050919050565b6060600080546104739061262c565b80601f016020809104026020016040519081016040528092919081815260200182805461049f9061262c565b80156104ec5780601f106104c1576101008083540402835291602001916104ec565b820191906000526020600020905b8154815290600101906020018083116104cf57829003601f168201915b5050505050905090565b600061050182610cd4565b610540576040517f08c379a000000000000000000000000000000000000000000000000000000000815260040161053790612344565b60405180910390fd5b6004600083815260200190815260200160002060009054906101000a900473ffffffffffffffffffffffffffffffffffffffff169050919050565b600061058682610713565b90508073ffffffffffffffffffffffffffffffffffffffff168373ffffffffffffffffffffffffffffffffffffffff1614156105f7576040517f08c379a00000000000000000000000000000000000000000000000000000000081526004016105ee90612384565b60405180910390fd5b8073ffffffffffffffffffffffffffffffffffffffff16610616610d40565b73ffffffffffffffffffffffffffffffffffffffff16148061064557506106448161063f610d40565b610bd6565b5b610684576040517f08c379a000000000000000000000000000000000000000000000000000000000815260040161067b90612284565b60405180910390fd5b61068e8383610d48565b505050565b6106a461069e610d40565b82610e01565b6106e3576040517f08c379a00000000000000000000000000000000000000000000000000000000081526004016106da906123a4565b60405180910390fd5b6106ee838383610edf565b505050565b61070e83838360405180602001604052806000815250610955565b505050565b6000806002600084815260200190815260200160002060009054906101000a900473ffffffffffffffffffffffffffffffffffffffff169050600073ffffffffffffffffffffffffffffffffffffffff168173ffffffffffffffffffffffffffffffffffffffff1614156107bc576040517f08c379a00000000000000000000000000000000000000000000000000000000081526004016107b3906122c4565b60405180910390fd5b80915050919050565b6000600954905090565b60008073ffffffffffffffffffffffffffffffffffffffff168273ffffffffffffffffffffffffffffffffffffffff161415610840576040517f08c379a0000000000000000000000000000000000000000000000000000000008152600401610837906122a4565b60405180910390fd5b600360008373ffffffffffffffffffffffffffffffffffffffff1673ffffffffffffffffffffffffffffffffffffffff168152602001908152602001600020549050919050565b600760009054906101000a900473ffffffffffffffffffffffffffffffffffffffff1681565b6060600180546108bc9061262c565b80601f01602080910402602001604051908101604052809291908181526020018280546108e89061262c565b80156109355780601f1061090a57610100808354040283529160200191610935565b820191906000526020600020905b81548152906001019060200180831161091857829003601f168201915b5050505050905090565b61095161094a610d40565b8383611146565b5050565b610966610960610d40565b83610e01565b6109a5576040517f08c379a000000000000000000000000000000000000000000000000000000000815260040161099c906123a4565b60405180910390fd5b6109b1848484846112b3565b50505050565b60606109c282610cd4565b610a01576040517f08c379a00000000000000000000000000000000000000000000000000000000081526004016109f890612324565b60405180910390fd5b6000600660008481526020019081526020016000208054610a219061262c565b80601f0160208091040260200160405190810160405280929190818152602001828054610a4d9061262c565b8015610a9a5780601f10610a6f57610100808354040283529160200191610a9a565b820191906000526020600020905b815481529060010190602001808311610a7d57829003601f168201915b505050505090506000610aab61130f565b9050600081511415610ac1578192505050610b04565b600082511115610af6578082604051602001610ade9291906120e1565b60405160208183030381529060405292505050610b04565b610aff84611326565b925050505b919050565b60003373ffffffffffffffffffffffffffffffffffffffff16600760009054906101000a900473ffffffffffffffffffffffffffffffffffffffff1673ffffffffffffffffffffffffffffffffffffffff1614610b6557600080fd5b600160096000828254610b7891906124a9565b9250508190555060006009549050610bb2600760009054906101000a900473ffffffffffffffffffffffffffffffffffffffff16826113cd565b610bbc81846115a7565b610bc6848261057b565b8091505092915050565b60085481565b6000600560008473ffffffffffffffffffffffffffffffffffffffff1673ffffffffffffffffffffffffffffffffffffffff16815260200190815260200160002060008373ffffffffffffffffffffffffffffffffffffffff1673ffffffffffffffffffffffffffffffffffffffff16815260200190815260200160002060009054906101000a900460ff16905092915050565b60007f01ffc9a7000000000000000000000000000000000000000000000000000000007bffffffffffffffffffffffffffffffffffffffffffffffffffffffff1916827bffffffffffffffffffffffffffffffffffffffffffffffffffffffff1916149050919050565b60008073ffffffffffffffffffffffffffffffffffffffff166002600084815260200190815260200160002060009054906101000a900473ffffffffffffffffffffffffffffffffffffffff1673ffffffffffffffffffffffffffffffffffffffff1614159050919050565b600033905090565b816004600083815260200190815260200160002060006101000a81548173ffffffffffffffffffffffffffffffffffffffff021916908373ffffffffffffffffffffffffffffffffffffffff160217905550808273ffffffffffffffffffffffffffffffffffffffff16610dbb83610713565b73ffffffffffffffffffffffffffffffffffffffff167f8c5be1e5ebec7d5bd14f71427d1e84f3dd0314c0f7b2291e5b200ac8c7c3b92560405160405180910390a45050565b6000610e0c82610cd4565b610e4b576040517f08c379a0000000000000000000000000000000000000000000000000000000008152600401610e4290612264565b60405180910390fd5b6000610e5683610713565b90508073ffffffffffffffffffffffffffffffffffffffff168473ffffffffffffffffffffffffffffffffffffffff161480610ec557508373ffffffffffffffffffffffffffffffffffffffff16610ead846104f6565b73ffffffffffffffffffffffffffffffffffffffff16145b80610ed65750610ed58185610bd6565b5b91505092915050565b8273ffffffffffffffffffffffffffffffffffffffff16610eff82610713565b73ffffffffffffffffffffffffffffffffffffffff1614610f55576040517f08c379a0000000000000000000000000000000000000000000000000000000008152600401610f4c906121e4565b60405180910390fd5b600073ffffffffffffffffffffffffffffffffffffffff168273ffffffffffffffffffffffffffffffffffffffff161415610fc5576040517f08c379a0000000000000000000000000000000000000000000000000000000008152600401610fbc90612224565b60405180910390fd5b610fd083838361161b565b610fdb600082610d48565b6001600360008573ffffffffffffffffffffffffffffffffffffffff1673ffffffffffffffffffffffffffffffffffffffff168152602001908152602001600020600082825461102b9190612530565b925050819055506001600360008473ffffffffffffffffffffffffffffffffffffffff1673ffffffffffffffffffffffffffffffffffffffff168152602001908152602001600020600082825461108291906124a9565b92505081905550816002600083815260200190815260200160002060006101000a81548173ffffffffffffffffffffffffffffffffffffffff021916908373ffffffffffffffffffffffffffffffffffffffff160217905550808273ffffffffffffffffffffffffffffffffffffffff168473ffffffffffffffffffffffffffffffffffffffff167fddf252ad1be2c89b69c2b068fc378daa952ba7f163c4a11628f55a4df523b3ef60405160405180910390a4611141838383611620565b505050565b8173ffffffffffffffffffffffffffffffffffffffff168373ffffffffffffffffffffffffffffffffffffffff1614156111b5576040517f08c379a00000000000000000000000000000000000000000000000000000000081526004016111ac90612244565b60405180910390fd5b80600560008573ffffffffffffffffffffffffffffffffffffffff1673ffffffffffffffffffffffffffffffffffffffff16815260200190815260200160002060008473ffffffffffffffffffffffffffffffffffffffff1673ffffffffffffffffffffffffffffffffffffffff16815260200190815260200160002060006101000a81548160ff0219169083151502179055508173ffffffffffffffffffffffffffffffffffffffff168373ffffffffffffffffffffffffffffffffffffffff167f17307eab39ab6107e8899845ad3d59bd9653f200f220920489ca2b5937696c31836040516112a69190612187565b60405180910390a3505050565b6112be848484610edf565b6112ca84848484611625565b611309576040517f08c379a0000000000000000000000000000000000000000000000000000000008152600401611300906121c4565b60405180910390fd5b50505050565b606060405180602001604052806000815250905090565b606061133182610cd4565b611370576040517f08c379a000000000000000000000000000000000000000000000000000000000815260040161136790612364565b60405180910390fd5b600061137a61130f565b9050600081511161139a57604051806020016040528060008152506113c5565b806113a4846117bc565b6040516020016113b59291906120e1565b6040516020818303038152906040525b915050919050565b600073ffffffffffffffffffffffffffffffffffffffff168273ffffffffffffffffffffffffffffffffffffffff16141561143d576040517f08c379a000000000000000000000000000000000000000000000000000000000815260040161143490612304565b60405180910390fd5b61144681610cd4565b15611486576040517f08c379a000000000000000000000000000000000000000000000000000000000815260040161147d90612204565b60405180910390fd5b6114926000838361161b565b6001600360008473ffffffffffffffffffffffffffffffffffffffff1673ffffffffffffffffffffffffffffffffffffffff16815260200190815260200160002060008282546114e291906124a9565b92505081905550816002600083815260200190815260200160002060006101000a81548173ffffffffffffffffffffffffffffffffffffffff021916908373ffffffffffffffffffffffffffffffffffffffff160217905550808273ffffffffffffffffffffffffffffffffffffffff16600073ffffffffffffffffffffffffffffffffffffffff167fddf252ad1be2c89b69c2b068fc378daa952ba7f163c4a11628f55a4df523b3ef60405160405180910390a46115a360008383611620565b5050565b6115b082610cd4565b6115ef576040517f08c379a00000000000000000000000000000000000000000000000000000000081526004016115e6906122e4565b60405180910390fd5b80600660008481526020019081526020016000209080519060200190611616929190611940565b505050565b505050565b505050565b60006116468473ffffffffffffffffffffffffffffffffffffffff1661191d565b156117af578373ffffffffffffffffffffffffffffffffffffffff1663150b7a0261166f610d40565b8786866040518563ffffffff1660e01b8152600401611691949392919061213b565b602060405180830381600087803b1580156116ab57600080fd5b505af19250505080156116dc57506040513d601f19601f820116820180604052508101906116d99190611d78565b60015b61175f573d806000811461170c576040519150601f19603f3d011682016040523d82523d6000602084013e611711565b606091505b50600081511415611757576040517f08c379a000000000000000000000000000000000000000000000000000000000815260040161174e906121c4565b60405180910390fd5b805181602001fd5b63150b7a0260e01b7bffffffffffffffffffffffffffffffffffffffffffffffffffffffff1916817bffffffffffffffffffffffffffffffffffffffffffffffffffffffff1916149150506117b4565b600190505b949350505050565b60606000821415611804576040518060400160405280600181526020017f30000000000000000000000000000000000000000000000000000000000000008152509050611918565b600082905060005b6000821461183657808061181f9061268f565b915050600a8261182f91906124ff565b915061180c565b60008167ffffffffffffffff811115611852576118516127c5565b5b6040519080825280601f01601f1916602001820160405280156118845781602001600182028036833780820191505090505b5090505b600085146119115760018261189d9190612530565b9150600a856118ac91906126d8565b60306118b891906124a9565b60f81b8183815181106118ce576118cd612796565b5b60200101907effffffffffffffffffffffffffffffffffffffffffffffffffffffffffffff1916908160001a905350600a8561190a91906124ff565b9450611888565b8093505050505b919050565b6000808273ffffffffffffffffffffffffffffffffffffffff163b119050919050565b82805461194c9061262c565b90600052602060002090601f01602090048101928261196e57600085556119b5565b82601f1061198757805160ff19168380011785556119b5565b828001600101855582156119b5579182015b828111156119b4578251825591602001919060010190611999565b5b5090506119c291906119c6565b5090565b5b808211156119df5760008160009055506001016119c7565b5090565b60006119f66119f184612404565b6123df565b905082815260208101848484011115611a1257611a116127f9565b5b611a1d8482856125ea565b509392505050565b6000611a38611a3384612435565b6123df565b905082815260208101848484011115611a5457611a536127f9565b5b611a5f8482856125ea565b509392505050565b600081359050611a7681612c97565b92915050565b600081359050611a8b81612cae565b92915050565b600081359050611aa081612cc5565b92915050565b600081519050611ab581612cc5565b92915050565b600082601f830112611ad057611acf6127f4565b5b8135611ae08482602086016119e3565b91505092915050565b600082601f830112611afe57611afd6127f4565b5b8135611b0e848260208601611a25565b91505092915050565b600081359050611b2681612cdc565b92915050565b600060208284031215611b4257611b41612803565b5b6000611b5084828501611a67565b91505092915050565b60008060408385031215611b7057611b6f612803565b5b6000611b7e85828601611a67565b9250506020611b8f85828601611a67565b9150509250929050565b600080600060608486031215611bb257611bb1612803565b5b6000611bc086828701611a67565b9350506020611bd186828701611a67565b9250506040611be286828701611b17565b9150509250925092565b60008060008060808587031215611c0657611c05612803565b5b6000611c1487828801611a67565b9450506020611c2587828801611a67565b9350506040611c3687828801611b17565b925050606085013567ffffffffffffffff811115611c5757611c566127fe565b5b611c6387828801611abb565b91505092959194509250565b60008060408385031215611c8657611c85612803565b5b6000611c9485828601611a67565b9250506020611ca585828601611a7c565b9150509250929050565b60008060408385031215611cc657611cc5612803565b5b6000611cd485828601611a67565b925050602083013567ffffffffffffffff811115611cf557611cf46127fe565b5b611d0185828601611ae9565b9150509250929050565b60008060408385031215611d2257611d21612803565b5b6000611d3085828601611a67565b9250506020611d4185828601611b17565b9150509250929050565b600060208284031215611d6157611d60612803565b5b6000611d6f84828501611a91565b91505092915050565b600060208284031215611d8e57611d8d612803565b5b6000611d9c84828501611aa6565b91505092915050565b600060208284031215611dbb57611dba612803565b5b6000611dc984828501611b17565b91505092915050565b611ddb81612576565b82525050565b611dea81612564565b82525050565b611df981612588565b82525050565b6000611e0a82612466565b611e14818561247c565b9350611e248185602086016125f9565b611e2d81612808565b840191505092915050565b6000611e4382612471565b611e4d818561248d565b9350611e5d8185602086016125f9565b611e6681612808565b840191505092915050565b6000611e7c82612471565b611e86818561249e565b9350611e968185602086016125f9565b80840191505092915050565b6000611eaf60328361248d565b9150611eba82612819565b604082019050919050565b6000611ed260258361248d565b9150611edd82612868565b604082019050919050565b6000611ef5601c8361248d565b9150611f00826128b7565b602082019050919050565b6000611f1860248361248d565b9150611f23826128e0565b604082019050919050565b6000611f3b60198361248d565b9150611f468261292f565b602082019050919050565b6000611f5e602c8361248d565b9150611f6982612958565b604082019050919050565b6000611f8160388361248d565b9150611f8c826129a7565b604082019050919050565b6000611fa4602a8361248d565b9150611faf826129f6565b604082019050919050565b6000611fc760298361248d565b9150611fd282612a45565b604082019050919050565b6000611fea602e8361248d565b9150611ff582612a94565b604082019050919050565b600061200d60208361248d565b915061201882612ae3565b602082019050919050565b600061203060318361248d565b915061203b82612b0c565b604082019050919050565b6000612053602c8361248d565b915061205e82612b5b565b604082019050919050565b6000612076602f8361248d565b915061208182612baa565b604082019050919050565b600061209960218361248d565b91506120a482612bf9565b604082019050919050565b60006120bc60318361248d565b91506120c782612c48565b604082019050919050565b6120db816125e0565b82525050565b60006120ed8285611e71565b91506120f98284611e71565b91508190509392505050565b600060208201905061211a6000830184611de1565b92915050565b60006020820190506121356000830184611dd2565b92915050565b60006080820190506121506000830187611de1565b61215d6020830186611de1565b61216a60408301856120d2565b818103606083015261217c8184611dff565b905095945050505050565b600060208201905061219c6000830184611df0565b92915050565b600060208201905081810360008301526121bc8184611e38565b905092915050565b600060208201905081810360008301526121dd81611ea2565b9050919050565b600060208201905081810360008301526121fd81611ec5565b9050919050565b6000602082019050818103600083015261221d81611ee8565b9050919050565b6000602082019050818103600083015261223d81611f0b565b9050919050565b6000602082019050818103600083015261225d81611f2e565b9050919050565b6000602082019050818103600083015261227d81611f51565b9050919050565b6000602082019050818103600083015261229d81611f74565b9050919050565b600060208201905081810360008301526122bd81611f97565b9050919050565b600060208201905081810360008301526122dd81611fba565b9050919050565b600060208201905081810360008301526122fd81611fdd565b9050919050565b6000602082019050818103600083015261231d81612000565b9050919050565b6000602082019050818103600083015261233d81612023565b9050919050565b6000602082019050818103600083015261235d81612046565b9050919050565b6000602082019050818103600083015261237d81612069565b9050919050565b6000602082019050818103600083015261239d8161208c565b9050919050565b600060208201905081810360008301526123bd816120af565b9050919050565b60006020820190506123d960008301846120d2565b92915050565b60006123e96123fa565b90506123f5828261265e565b919050565b6000604051905090565b600067ffffffffffffffff82111561241f5761241e6127c5565b5b61242882612808565b9050602081019050919050565b600067ffffffffffffffff8211156124505761244f6127c5565b5b61245982612808565b9050602081019050919050565b600081519050919050565b600081519050919050565b600082825260208201905092915050565b600082825260208201905092915050565b600081905092915050565b60006124b4826125e0565b91506124bf836125e0565b9250827fffffffffffffffffffffffffffffffffffffffffffffffffffffffffffffffff038211156124f4576124f3612709565b5b828201905092915050565b600061250a826125e0565b9150612515836125e0565b92508261252557612524612738565b5b828204905092915050565b600061253b826125e0565b9150612546836125e0565b92508282101561255957612558612709565b5b828203905092915050565b600061256f826125c0565b9050919050565b6000612581826125c0565b9050919050565b60008115159050919050565b60007fffffffff0000000000000000000000000000000000000000000000000000000082169050919050565b600073ffffffffffffffffffffffffffffffffffffffff82169050919050565b6000819050919050565b82818337600083830152505050565b60005b838110156126175780820151818401526020810190506125fc565b83811115612626576000848401525b50505050565b6000600282049050600182168061264457607f821691505b6020821081141561265857612657612767565b5b50919050565b61266782612808565b810181811067ffffffffffffffff82111715612686576126856127c5565b5b80604052505050565b600061269a826125e0565b91507fffffffffffffffffffffffffffffffffffffffffffffffffffffffffffffffff8214156126cd576126cc612709565b5b600182019050919050565b60006126e3826125e0565b91506126ee836125e0565b9250826126fe576126fd612738565b5b828206905092915050565b7f4e487b7100000000000000000000000000000000000000000000000000000000600052601160045260246000fd5b7f4e487b7100000000000000000000000000000000000000000000000000000000600052601260045260246000fd5b7f4e487b7100000000000000000000000000000000000000000000000000000000600052602260045260246000fd5b7f4e487b7100000000000000000000000000000000000000000000000000000000600052603260045260246000fd5b7f4e487b7100000000000000000000000000000000000000000000000000000000600052604160045260246000fd5b600080fd5b600080fd5b600080fd5b600080fd5b6000601f19601f8301169050919050565b7f4552433732313a207472616e7366657220746f206e6f6e20455243373231526560008201527f63656976657220696d706c656d656e7465720000000000000000000000000000602082015250565b7f4552433732313a207472616e736665722066726f6d20696e636f72726563742060008201527f6f776e6572000000000000000000000000000000000000000000000000000000602082015250565b7f4552433732313a20746f6b656e20616c7265616479206d696e74656400000000600082015250565b7f4552433732313a207472616e7366657220746f20746865207a65726f2061646460008201527f7265737300000000000000000000000000000000000000000000000000000000602082015250565b7f4552433732313a20617070726f766520746f2063616c6c657200000000000000600082015250565b7f4552433732313a206f70657261746f7220717565727920666f72206e6f6e657860008201527f697374656e7420746f6b656e0000000000000000000000000000000000000000602082015250565b7f4552433732313a20617070726f76652063616c6c6572206973206e6f74206f7760008201527f6e6572206e6f7220617070726f76656420666f7220616c6c0000000000000000602082015250565b7f4552433732313a2062616c616e636520717565727920666f7220746865207a6560008201527f726f206164647265737300000000000000000000000000000000000000000000602082015250565b7f4552433732313a206f776e657220717565727920666f72206e6f6e657869737460008201527f656e7420746f6b656e0000000000000000000000000000000000000000000000602082015250565b7f45524337323155524953746f726167653a2055524920736574206f66206e6f6e60008201527f6578697374656e7420746f6b656e000000000000000000000000000000000000602082015250565b7f4552433732313a206d696e7420746f20746865207a65726f2061646472657373600082015250565b7f45524337323155524953746f726167653a2055524920717565727920666f722060008201527f6e6f6e6578697374656e7420746f6b656e000000000000000000000000000000602082015250565b7f4552433732313a20617070726f76656420717565727920666f72206e6f6e657860008201527f697374656e7420746f6b656e0000000000000000000000000000000000000000602082015250565b7f4552433732314d657461646174613a2055524920717565727920666f72206e6f60008201527f6e6578697374656e7420746f6b656e0000000000000000000000000000000000602082015250565b7f4552433732313a20617070726f76616c20746f2063757272656e74206f776e6560008201527f7200000000000000000000000000000000000000000000000000000000000000602082015250565b7f4552433732313a207472616e736665722063616c6c6572206973206e6f74206f60008201527f776e6572206e6f7220617070726f766564000000000000000000000000000000602082015250565b612ca081612564565b8114612cab57600080fd5b50565b612cb781612588565b8114612cc257600080fd5b50565b612cce81612594565b8114612cd957600080fd5b50565b612ce5816125e0565b8114612cf057600080fd5b5056fea2646970667358221220edbf22a3426879a584e50abcb28730dd2fcbcda52b6784d3a010de2d2caa58d064736f6c63430008050033",
  "immutableReferences": {},
  "source": "pragma solidity ^0.8.0;\r\n\r\nimport \"@openzeppelin/contracts/token/ERC721/extensions/ERC721URIStorage.sol\";\r\n\r\ncontract Hitman47 is ERC721URIStorage {\r\n    address payable public owner ;\r\n    uint256 public initialMintingCost = 0 ; //0 tokens\r\n    uint256 internal count = 0 ;\r\n\r\n    constructor() ERC721(\"Hitman NFT\", \"HITMAN\") public {\r\n        owner = payable(msg.sender);\r\n    }\r\n\r\n    function mint(address market, string memory tokenURI) public returns (uint256) {\r\n        require(owner == msg.sender);\r\n        count += 1 ;\r\n        uint256 newItemId = count;\r\n        _mint(owner, newItemId);\r\n        _setTokenURI(newItemId, tokenURI);\r\n        approve(market , newItemId);\r\n        return newItemId;\r\n    }\r\n\r\n    function totalSupplyy() external view returns (uint256) {\r\n      return count;\r\n    }\r\n\r\n\r\n\r\n\r\n\r\n}",
  "sourcePath": "C:/Users/ather/Desktop/BlockChain Project/DAPP/My First/src/contracts/Hitman47.sol",
  "compiler": {
    "name": "solc",
    "version": "0.8.5+commit.a4f2e591.Emscripten.clang"
  },
  "schemaVersion": "3.2.3",
  "updatedAt": "2022-03-27T12:40:30.885Z",
  "networkType": "ethereum",
  "devdoc": {
    "kind": "dev",
    "methods": {
      "approve(address,uint256)": {
        "details": "See {IERC721-approve}."
      },
      "balanceOf(address)": {
        "details": "See {IERC721-balanceOf}."
      },
      "getApproved(uint256)": {
        "details": "See {IERC721-getApproved}."
      },
      "isApprovedForAll(address,address)": {
        "details": "See {IERC721-isApprovedForAll}."
      },
      "name()": {
        "details": "See {IERC721Metadata-name}."
      },
      "ownerOf(uint256)": {
        "details": "See {IERC721-ownerOf}."
      },
      "safeTransferFrom(address,address,uint256)": {
        "details": "See {IERC721-safeTransferFrom}."
      },
      "safeTransferFrom(address,address,uint256,bytes)": {
        "details": "See {IERC721-safeTransferFrom}."
      },
      "setApprovalForAll(address,bool)": {
        "details": "See {IERC721-setApprovalForAll}."
      },
      "supportsInterface(bytes4)": {
        "details": "See {IERC165-supportsInterface}."
      },
      "symbol()": {
        "details": "See {IERC721Metadata-symbol}."
      },
      "tokenURI(uint256)": {
        "details": "See {IERC721Metadata-tokenURI}."
      },
      "transferFrom(address,address,uint256)": {
        "details": "See {IERC721-transferFrom}."
      }
    },
    "version": 1
  },
  "userdoc": {
    "kind": "user",
    "methods": {},
    "version": 1
  }
}