{
  "contractName": "Market",
  "abi": [
    {
      "anonymous": false,
      "inputs": [
        {
          "indexed": false,
          "internalType": "uint256",
          "name": "listingId",
          "type": "uint256"
        },
        {
          "indexed": false,
          "internalType": "address",
          "name": "seller",
          "type": "address"
        }
      ],
      "name": "Cancel",
      "type": "event"
    },
    {
      "anonymous": false,
      "inputs": [
        {
          "indexed": false,
          "internalType": "uint256",
          "name": "listingId",
          "type": "uint256"
        },
        {
          "indexed": false,
          "internalType": "address",
          "name": "seller",
          "type": "address"
        },
        {
          "indexed": false,
          "internalType": "address",
          "name": "token",
          "type": "address"
        },
        {
          "indexed": false,
          "internalType": "uint256",
          "name": "tokenId",
          "type": "uint256"
        },
        {
          "indexed": false,
          "internalType": "uint256",
          "name": "price",
          "type": "uint256"
        }
      ],
      "name": "Listed",
      "type": "event"
    },
    {
      "anonymous": false,
      "inputs": [
        {
          "indexed": false,
          "internalType": "uint256",
          "name": "listingId",
          "type": "uint256"
        },
        {
          "indexed": false,
          "internalType": "address",
          "name": "buyer",
          "type": "address"
        },
        {
          "indexed": false,
          "internalType": "address",
          "name": "token",
          "type": "address"
        },
        {
          "indexed": false,
          "internalType": "uint256",
          "name": "tokenId",
          "type": "uint256"
        },
        {
          "indexed": false,
          "internalType": "uint256",
          "name": "price",
          "type": "uint256"
        }
      ],
      "name": "Sale",
      "type": "event"
    },
    {
      "inputs": [
        {
          "internalType": "address",
          "name": "token",
          "type": "address"
        },
        {
          "internalType": "uint256",
          "name": "tokenId",
          "type": "uint256"
        },
        {
          "internalType": "uint256",
          "name": "price",
          "type": "uint256"
        }
      ],
      "name": "listToken",
      "outputs": [],
      "stateMutability": "nonpayable",
      "type": "function"
    },
    {
      "inputs": [
        {
          "internalType": "uint256",
          "name": "listingId",
          "type": "uint256"
        }
      ],
      "name": "getListing",
      "outputs": [
        {
          "components": [
            {
              "internalType": "enum Market.ListingStatus",
              "name": "status",
              "type": "uint8"
            },
            {
              "internalType": "address",
              "name": "seller",
              "type": "address"
            },
            {
              "internalType": "address",
              "name": "token",
              "type": "address"
            },
            {
              "internalType": "uint256",
              "name": "tokenId",
              "type": "uint256"
            },
            {
              "internalType": "uint256",
              "name": "price",
              "type": "uint256"
            }
          ],
          "internalType": "struct Market.Listing",
          "name": "",
          "type": "tuple"
        }
      ],
      "stateMutability": "view",
      "type": "function",
      "constant": true
    },
    {
      "inputs": [
        {
          "internalType": "uint256",
          "name": "listingId",
          "type": "uint256"
        }
      ],
      "name": "buyToken",
      "outputs": [],
      "stateMutability": "payable",
      "type": "function",
      "payable": true
    },
    {
      "inputs": [
        {
          "internalType": "uint256",
          "name": "listingId",
          "type": "uint256"
        }
      ],
      "name": "cancel",
      "outputs": [],
      "stateMutability": "nonpayable",
      "type": "function"
    }
  ],
  "bytecode": "0x60806040526000805534801561001457600080fd5b50610f67806100246000396000f3fe60806040526004361061003f5760003560e01c8063107a274a146100445780632d296bf11461008157806340e58ee51461009d5780637e07590d146100c6575b600080fd5b34801561005057600080fd5b5061006b60048036038101906100669190610a73565b6100ef565b6040516100789190610c96565b60405180910390f35b61009b60048036038101906100969190610a73565b610217565b005b3480156100a957600080fd5b506100c460048036038101906100bf9190610a73565b610522565b005b3480156100d257600080fd5b506100ed60048036038101906100e89190610a20565b610768565b005b6100f7610989565b600160008381526020019081526020016000206040518060a00160405290816000820160009054906101000a900460ff16600281111561013a57610139610e17565b5b600281111561014c5761014b610e17565b5b81526020016000820160019054906101000a900473ffffffffffffffffffffffffffffffffffffffff1673ffffffffffffffffffffffffffffffffffffffff1673ffffffffffffffffffffffffffffffffffffffff1681526020016001820160009054906101000a900473ffffffffffffffffffffffffffffffffffffffff1673ffffffffffffffffffffffffffffffffffffffff1673ffffffffffffffffffffffffffffffffffffffff168152602001600282015481526020016003820154815250509050919050565b60006001600083815260200190815260200160002090508060000160019054906101000a900473ffffffffffffffffffffffffffffffffffffffff1673ffffffffffffffffffffffffffffffffffffffff163373ffffffffffffffffffffffffffffffffffffffff1614156102c1576040517f08c379a00000000000000000000000000000000000000000000000000000000081526004016102b890610c16565b60405180910390fd5b600060028111156102d5576102d4610e17565b5b8160000160009054906101000a900460ff1660028111156102f9576102f8610e17565b5b14610339576040517f08c379a000000000000000000000000000000000000000000000000000000000815260040161033090610c56565b60405180910390fd5b8060030154341015610380576040517f08c379a000000000000000000000000000000000000000000000000000000000815260040161037790610c76565b60405180910390fd5b60018160000160006101000a81548160ff021916908360028111156103a8576103a7610e17565b5b02179055508060010160009054906101000a900473ffffffffffffffffffffffffffffffffffffffff1673ffffffffffffffffffffffffffffffffffffffff166323b872dd303384600201546040518463ffffffff1660e01b815260040161041293929190610bdf565b600060405180830381600087803b15801561042c57600080fd5b505af1158015610440573d6000803e3d6000fd5b505050508060000160019054906101000a900473ffffffffffffffffffffffffffffffffffffffff1673ffffffffffffffffffffffffffffffffffffffff166108fc82600301549081150290604051600060405180830381858888f193505050501580156104b2573d6000803e3d6000fd5b507ff3debaf22196a6ddf52a60fa71058cd7edf5e25bb98f4e96c994a5d4a9b0dd3e82338360010160009054906101000a900473ffffffffffffffffffffffffffffffffffffffff1684600201548560030154604051610516959493929190610cda565b60405180910390a15050565b60006001600083815260200190815260200160002090508060000160019054906101000a900473ffffffffffffffffffffffffffffffffffffffff1673ffffffffffffffffffffffffffffffffffffffff163373ffffffffffffffffffffffffffffffffffffffff16146105cb576040517f08c379a00000000000000000000000000000000000000000000000000000000081526004016105c290610c36565b60405180910390fd5b600060028111156105df576105de610e17565b5b8160000160009054906101000a900460ff16600281111561060357610602610e17565b5b14610643576040517f08c379a000000000000000000000000000000000000000000000000000000000815260040161063a90610c56565b60405180910390fd5b60028160000160006101000a81548160ff0219169083600281111561066b5761066a610e17565b5b02179055508060010160009054906101000a900473ffffffffffffffffffffffffffffffffffffffff1673ffffffffffffffffffffffffffffffffffffffff166323b872dd303384600201546040518463ffffffff1660e01b81526004016106d593929190610bdf565b600060405180830381600087803b1580156106ef57600080fd5b505af1158015610703573d6000803e3d6000fd5b505050507f8dd3c361eb2366ff27c2db0eb07b9261f1d052570742ab8c9a0c326f37aa576d828260000160019054906101000a900473ffffffffffffffffffffffffffffffffffffffff1660405161075c929190610cb1565b60405180910390a15050565b8273ffffffffffffffffffffffffffffffffffffffff166323b872dd3330856040518463ffffffff1660e01b81526004016107a593929190610bdf565b600060405180830381600087803b1580156107bf57600080fd5b505af11580156107d3573d6000803e3d6000fd5b5050505060006040518060a00160405280600060028111156107f8576107f7610e17565b5b81526020013373ffffffffffffffffffffffffffffffffffffffff1681526020018573ffffffffffffffffffffffffffffffffffffffff16815260200184815260200183815250905060008081548092919061085390610d9f565b919050555080600160008054815260200190815260200160002060008201518160000160006101000a81548160ff0219169083600281111561089857610897610e17565b5b021790555060208201518160000160016101000a81548173ffffffffffffffffffffffffffffffffffffffff021916908373ffffffffffffffffffffffffffffffffffffffff16021790555060408201518160010160006101000a81548173ffffffffffffffffffffffffffffffffffffffff021916908373ffffffffffffffffffffffffffffffffffffffff16021790555060608201518160020155608082015181600301559050507f723f73331eaee88eec7fc68ef60ab6ed15e4b90d0472b55eb92fa43910bab6dd6000543386868660405161097b959493929190610cda565b60405180910390a150505050565b6040518060a00160405280600060028111156109a8576109a7610e17565b5b8152602001600073ffffffffffffffffffffffffffffffffffffffff168152602001600073ffffffffffffffffffffffffffffffffffffffff16815260200160008152602001600081525090565b600081359050610a0581610f03565b92915050565b600081359050610a1a81610f1a565b92915050565b600080600060608486031215610a3957610a38610e46565b5b6000610a47868287016109f6565b9350506020610a5886828701610a0b565b9250506040610a6986828701610a0b565b9150509250925092565b600060208284031215610a8957610a88610e46565b5b6000610a9784828501610a0b565b91505092915050565b610aa981610d3e565b82525050565b610ab881610d3e565b82525050565b610ac781610d8d565b82525050565b6000610ada601683610d2d565b9150610ae582610e4b565b602082019050919050565b6000610afd601e83610d2d565b9150610b0882610e74565b602082019050919050565b6000610b20601583610d2d565b9150610b2b82610e9d565b602082019050919050565b6000610b43601483610d2d565b9150610b4e82610ec6565b602082019050919050565b60a082016000820151610b6f6000850182610abe565b506020820151610b826020850182610aa0565b506040820151610b956040850182610aa0565b506060820151610ba86060850182610bc1565b506080820151610bbb6080850182610bc1565b50505050565b610bca81610d83565b82525050565b610bd981610d83565b82525050565b6000606082019050610bf46000830186610aaf565b610c016020830185610aaf565b610c0e6040830184610bd0565b949350505050565b60006020820190508181036000830152610c2f81610acd565b9050919050565b60006020820190508181036000830152610c4f81610af0565b9050919050565b60006020820190508181036000830152610c6f81610b13565b9050919050565b60006020820190508181036000830152610c8f81610b36565b9050919050565b600060a082019050610cab6000830184610b59565b92915050565b6000604082019050610cc66000830185610bd0565b610cd36020830184610aaf565b9392505050565b600060a082019050610cef6000830188610bd0565b610cfc6020830187610aaf565b610d096040830186610aaf565b610d166060830185610bd0565b610d236080830184610bd0565b9695505050505050565b600082825260208201905092915050565b6000610d4982610d63565b9050919050565b6000819050610d5e82610eef565b919050565b600073ffffffffffffffffffffffffffffffffffffffff82169050919050565b6000819050919050565b6000610d9882610d50565b9050919050565b6000610daa82610d83565b91507fffffffffffffffffffffffffffffffffffffffffffffffffffffffffffffffff821415610ddd57610ddc610de8565b5b600182019050919050565b7f4e487b7100000000000000000000000000000000000000000000000000000000600052601160045260246000fd5b7f4e487b7100000000000000000000000000000000000000000000000000000000600052602160045260246000fd5b600080fd5b7f53656c6c65722063616e6e6f7420626520627579657200000000000000000000600082015250565b7f4f6e6c792073656c6c65722063616e2063616e63656c206c697374696e670000600082015250565b7f4c697374696e67206973206e6f74206163746976650000000000000000000000600082015250565b7f496e73756666696369656e74207061796d656e74000000000000000000000000600082015250565b60038110610f0057610eff610e17565b5b50565b610f0c81610d3e565b8114610f1757600080fd5b50565b610f2381610d83565b8114610f2e57600080fd5b5056fea264697066735822122063fa184c38ca3c3e91f5c7157c648959567027b9fb6e02b56172a1461083bc7364736f6c63430008050033",
  "immutableReferences": {},
  "source": "// SPDX-License-Identifier: MIT\r\npragma solidity ^0.8.0;\r\n\r\nimport \"@openzeppelin/contracts/token/ERC721/IERC721.sol\";\r\n\r\ncontract Market {\r\n\tenum ListingStatus {\r\n\t\tActive,\r\n\t\tSold,\r\n\t\tCancelled\r\n\t}\r\n\r\n\tstruct Listing {\r\n\t\tListingStatus status;\r\n\t\taddress seller;\r\n\t\taddress token;\r\n\t\tuint tokenId;\r\n\t\tuint price;\r\n\t}\r\n\r\n\tevent Listed(\r\n\t\tuint listingId,\r\n\t\taddress seller,\r\n\t\taddress token,\r\n\t\tuint tokenId,\r\n\t\tuint price\r\n\t);\r\n\r\n\tevent Sale(\r\n\t\tuint listingId,\r\n\t\taddress buyer,\r\n\t\taddress token,\r\n\t\tuint tokenId,\r\n\t\tuint price\r\n\t);\r\n\r\n\tevent Cancel(\r\n\t\tuint listingId,\r\n\t\taddress seller\r\n\t);\r\n\r\n\tuint private _listingId = 0;\r\n\tmapping(uint => Listing) private _listings;\r\n\r\n\tfunction listToken(address token, uint tokenId, uint price) external {\r\n\t\tIERC721(token).transferFrom(msg.sender, address(this), tokenId);\r\n\r\n\t\tListing memory listing = Listing(\r\n\t\t\tListingStatus.Active,\r\n\t\t\tmsg.sender,\r\n\t\t\ttoken,\r\n\t\t\ttokenId,\r\n\t\t\tprice\r\n\t\t);\r\n\r\n\t\t_listingId++;\r\n\r\n\t\t_listings[_listingId] = listing;\r\n\r\n\t\temit Listed(\r\n\t\t\t_listingId,\r\n\t\t\tmsg.sender,\r\n\t\t\ttoken,\r\n\t\t\ttokenId,\r\n\t\t\tprice\r\n\t\t);\r\n\t}\r\n\r\n\tfunction getListing(uint listingId) public view returns (Listing memory) {\r\n\t\treturn _listings[listingId];\r\n\t}\r\n\r\n\tfunction buyToken(uint listingId) external payable {\r\n\t\tListing storage listing = _listings[listingId];\r\n\r\n\t\trequire(msg.sender != listing.seller, \"Seller cannot be buyer\");\r\n\t\trequire(listing.status == ListingStatus.Active, \"Listing is not active\");\r\n\r\n\t\trequire(msg.value >= listing.price, \"Insufficient payment\");\r\n\r\n\t\tlisting.status = ListingStatus.Sold;\r\n\r\n\t\tIERC721(listing.token).transferFrom(address(this), msg.sender, listing.tokenId);\r\n\t\tpayable(listing.seller).transfer(listing.price);\r\n\r\n\t\temit Sale(\r\n\t\t\tlistingId,\r\n\t\t\tmsg.sender,\r\n\t\t\tlisting.token,\r\n\t\t\tlisting.tokenId,\r\n\t\t\tlisting.price\r\n\t\t);\r\n\t}\r\n\r\n\tfunction cancel(uint listingId) public {\r\n\t\tListing storage listing = _listings[listingId];\r\n\r\n\t\trequire(msg.sender == listing.seller, \"Only seller can cancel listing\");\r\n\t\trequire(listing.status == ListingStatus.Active, \"Listing is not active\");\r\n\r\n\t\tlisting.status = ListingStatus.Cancelled;\r\n\t\r\n\t\tIERC721(listing.token).transferFrom(address(this), msg.sender, listing.tokenId);\r\n\r\n\t\temit Cancel(listingId, listing.seller);\r\n\t}\r\n}\r\n\r\n",
  "sourcePath": "C:/Users/ather/Desktop/BlockChain Project/DAPP/My First/src/contracts/Market.sol",
  "compiler": {
    "name": "solc",
    "version": "0.8.5+commit.a4f2e591.Emscripten.clang"
  },
  "schemaVersion": "3.2.3",
  "updatedAt": "2022-03-27T12:40:30.932Z",
  "networkType": "ethereum",
  "devdoc": {
    "kind": "dev",
    "methods": {},
    "version": 1
  },
  "userdoc": {
    "kind": "user",
    "methods": {},
    "version": 1
  }
}