{
  "contractName": "NFT",
  "abi": [
    {
      "inputs": [],
      "stateMutability": "nonpayable",
      "type": "constructor"
    },
    {
      "anonymous": false,
      "inputs": [
        {
          "indexed": true,
          "internalType": "address",
          "name": "owner",
          "type": "address"
        },
        {
          "indexed": true,
          "internalType": "address",
          "name": "approved",
          "type": "address"
        },
        {
          "indexed": true,
          "internalType": "uint256",
          "name": "tokenId",
          "type": "uint256"
        }
      ],
      "name": "Approval",
      "type": "event"
    },
    {
      "anonymous": false,
      "inputs": [
        {
          "indexed": true,
          "internalType": "address",
          "name": "owner",
          "type": "address"
        },
        {
          "indexed": true,
          "internalType": "address",
          "name": "operator",
          "type": "address"
        },
        {
          "indexed": false,
          "internalType": "bool",
          "name": "approved",
          "type": "bool"
        }
      ],
      "name": "ApprovalForAll",
      "type": "event"
    },
    {
      "anonymous": false,
      "inputs": [
        {
          "indexed": true,
          "internalType": "address",
          "name": "from",
          "type": "address"
        },
        {
          "indexed": true,
          "internalType": "address",
          "name": "to",
          "type": "address"
        },
        {
          "indexed": true,
          "internalType": "uint256",
          "name": "tokenId",
          "type": "uint256"
        }
      ],
      "name": "Transfer",
      "type": "event"
    },
    {
      "inputs": [
        {
          "internalType": "address",
          "name": "to",
          "type": "address"
        },
        {
          "internalType": "uint256",
          "name": "tokenId",
          "type": "uint256"
        }
      ],
      "name": "approve",
      "outputs": [],
      "stateMutability": "nonpayable",
      "type": "function"
    },
    {
      "inputs": [
        {
          "internalType": "address",
          "name": "owner",
          "type": "address"
        }
      ],
      "name": "balanceOf",
      "outputs": [
        {
          "internalType": "uint256",
          "name": "",
          "type": "uint256"
        }
      ],
      "stateMutability": "view",
      "type": "function",
      "constant": true
    },
    {
      "inputs": [
        {
          "internalType": "uint256",
          "name": "tokenId",
          "type": "uint256"
        }
      ],
      "name": "getApproved",
      "outputs": [
        {
          "internalType": "address",
          "name": "",
          "type": "address"
        }
      ],
      "stateMutability": "view",
      "type": "function",
      "constant": true
    },
    {
      "inputs": [
        {
          "internalType": "address",
          "name": "owner",
          "type": "address"
        },
        {
          "internalType": "address",
          "name": "operator",
          "type": "address"
        }
      ],
      "name": "isApprovedForAll",
      "outputs": [
        {
          "internalType": "bool",
          "name": "",
          "type": "bool"
        }
      ],
      "stateMutability": "view",
      "type": "function",
      "constant": true
    },
    {
      "inputs": [],
      "name": "name",
      "outputs": [
        {
          "internalType": "string",
          "name": "",
          "type": "string"
        }
      ],
      "stateMutability": "view",
      "type": "function",
      "constant": true
    },
    {
      "inputs": [
        {
          "internalType": "uint256",
          "name": "tokenId",
          "type": "uint256"
        }
      ],
      "name": "ownerOf",
      "outputs": [
        {
          "internalType": "address",
          "name": "",
          "type": "address"
        }
      ],
      "stateMutability": "view",
      "type": "function",
      "constant": true
    },
    {
      "inputs": [
        {
          "internalType": "address",
          "name": "from",
          "type": "address"
        },
        {
          "internalType": "address",
          "name": "to",
          "type": "address"
        },
        {
          "internalType": "uint256",
          "name": "tokenId",
          "type": "uint256"
        }
      ],
      "name": "safeTransferFrom",
      "outputs": [],
      "stateMutability": "nonpayable",
      "type": "function"
    },
    {
      "inputs": [
        {
          "internalType": "address",
          "name": "from",
          "type": "address"
        },
        {
          "internalType": "address",
          "name": "to",
          "type": "address"
        },
        {
          "internalType": "uint256",
          "name": "tokenId",
          "type": "uint256"
        },
        {
          "internalType": "bytes",
          "name": "_data",
          "type": "bytes"
        }
      ],
      "name": "safeTransferFrom",
      "outputs": [],
      "stateMutability": "nonpayable",
      "type": "function"
    },
    {
      "inputs": [
        {
          "internalType": "address",
          "name": "operator",
          "type": "address"
        },
        {
          "internalType": "bool",
          "name": "approved",
          "type": "bool"
        }
      ],
      "name": "setApprovalForAll",
      "outputs": [],
      "stateMutability": "nonpayable",
      "type": "function"
    },
    {
      "inputs": [
        {
          "internalType": "bytes4",
          "name": "interfaceId",
          "type": "bytes4"
        }
      ],
      "name": "supportsInterface",
      "outputs": [
        {
          "internalType": "bool",
          "name": "",
          "type": "bool"
        }
      ],
      "stateMutability": "view",
      "type": "function",
      "constant": true
    },
    {
      "inputs": [],
      "name": "symbol",
      "outputs": [
        {
          "internalType": "string",
          "name": "",
          "type": "string"
        }
      ],
      "stateMutability": "view",
      "type": "function",
      "constant": true
    },
    {
      "inputs": [
        {
          "internalType": "uint256",
          "name": "tokenId",
          "type": "uint256"
        }
      ],
      "name": "tokenURI",
      "outputs": [
        {
          "internalType": "string",
          "name": "",
          "type": "string"
        }
      ],
      "stateMutability": "view",
      "type": "function",
      "constant": true
    },
    {
      "inputs": [
        {
          "internalType": "address",
          "name": "from",
          "type": "address"
        },
        {
          "internalType": "address",
          "name": "to",
          "type": "address"
        },
        {
          "internalType": "uint256",
          "name": "tokenId",
          "type": "uint256"
        }
      ],
      "name": "transferFrom",
      "outputs": [],
      "stateMutability": "nonpayable",
      "type": "function"
    },
    {
      "inputs": [],
      "name": "mint",
      "outputs": [
        {
          "internalType": "uint256",
          "name": "",
          "type": "uint256"
        }
      ],
      "stateMutability": "nonpayable",
      "type": "function"
    }
  ],
  "bytecode": "0x608060405260006006553480156200001657600080fd5b506040518060400160405280600b81526020017f436f6f6c657374204e46540000000000000000000000000000000000000000008152506040518060400160405280600381526020017f4e4654000000000000000000000000000000000000000000000000000000000081525081600090805190602001906200009b929190620000bd565b508060019080519060200190620000b4929190620000bd565b505050620001d2565b828054620000cb906200016d565b90600052602060002090601f016020900481019282620000ef57600085556200013b565b82601f106200010a57805160ff19168380011785556200013b565b828001600101855582156200013b579182015b828111156200013a5782518255916020019190600101906200011d565b5b5090506200014a91906200014e565b5090565b5b80821115620001695760008160009055506001016200014f565b5090565b600060028204905060018216806200018657607f821691505b602082108114156200019d576200019c620001a3565b5b50919050565b7f4e487b7100000000000000000000000000000000000000000000000000000000600052602260045260246000fd5b61270780620001e26000396000f3fe608060405234801561001057600080fd5b50600436106100ea5760003560e01c80636352211e1161008c578063a22cb46511610066578063a22cb4651461025d578063b88d4fde14610279578063c87b56dd14610295578063e985e9c5146102c5576100ea565b80636352211e146101df57806370a082311461020f57806395d89b411461023f576100ea565b8063095ea7b3116100c8578063095ea7b31461016d5780631249c58b1461018957806323b872dd146101a757806342842e0e146101c3576100ea565b806301ffc9a7146100ef57806306fdde031461011f578063081812fc1461013d575b600080fd5b610109600480360381019061010491906118ba565b6102f5565b6040516101169190611c86565b60405180910390f35b6101276103d7565b6040516101349190611ca1565b60405180910390f35b61015760048036038101906101529190611914565b610469565b6040516101649190611c1f565b60405180910390f35b6101876004803603810190610182919061187a565b6104ee565b005b610191610606565b60405161019e9190611e83565b60405180910390f35b6101c160048036038101906101bc9190611764565b610634565b005b6101dd60048036038101906101d89190611764565b610694565b005b6101f960048036038101906101f49190611914565b6106b4565b6040516102069190611c1f565b60405180910390f35b610229600480360381019061022491906116f7565b610766565b6040516102369190611e83565b60405180910390f35b61024761081e565b6040516102549190611ca1565b60405180910390f35b6102776004803603810190610272919061183a565b6108b0565b005b610293600480360381019061028e91906117b7565b6108c6565b005b6102af60048036038101906102aa9190611914565b610928565b6040516102bc9190611ca1565b60405180910390f35b6102df60048036038101906102da9190611724565b6109cf565b6040516102ec9190611c86565b60405180910390f35b60007f80ac58cd000000000000000000000000000000000000000000000000000000007bffffffffffffffffffffffffffffffffffffffffffffffffffffffff1916827bffffffffffffffffffffffffffffffffffffffffffffffffffffffff191614806103c057507f5b5e139f000000000000000000000000000000000000000000000000000000007bffffffffffffffffffffffffffffffffffffffffffffffffffffffff1916827bffffffffffffffffffffffffffffffffffffffffffffffffffffffff1916145b806103d057506103cf82610a63565b5b9050919050565b6060600080546103e6906120a8565b80601f0160208091040260200160405190810160405280929190818152602001828054610412906120a8565b801561045f5780601f106104345761010080835404028352916020019161045f565b820191906000526020600020905b81548152906001019060200180831161044257829003601f168201915b5050505050905090565b600061047482610acd565b6104b3576040517f08c379a00000000000000000000000000000000000000000000000000000000081526004016104aa90611e03565b60405180910390fd5b6004600083815260200190815260200160002060009054906101000a900473ffffffffffffffffffffffffffffffffffffffff169050919050565b60006104f9826106b4565b90508073ffffffffffffffffffffffffffffffffffffffff168373ffffffffffffffffffffffffffffffffffffffff16141561056a576040517f08c379a000000000000000000000000000000000000000000000000000000000815260040161056190611e43565b60405180910390fd5b8073ffffffffffffffffffffffffffffffffffffffff16610589610b39565b73ffffffffffffffffffffffffffffffffffffffff1614806105b857506105b7816105b2610b39565b6109cf565b5b6105f7576040517f08c379a00000000000000000000000000000000000000000000000000000000081526004016105ee90611d83565b60405180910390fd5b6106018383610b41565b505050565b60006006600081548092919061061b9061210b565b919050555061062c33600654610bfa565b600654905090565b61064561063f610b39565b82610dd4565b610684576040517f08c379a000000000000000000000000000000000000000000000000000000000815260040161067b90611e63565b60405180910390fd5b61068f838383610eb2565b505050565b6106af838383604051806020016040528060008152506108c6565b505050565b6000806002600084815260200190815260200160002060009054906101000a900473ffffffffffffffffffffffffffffffffffffffff169050600073ffffffffffffffffffffffffffffffffffffffff168173ffffffffffffffffffffffffffffffffffffffff16141561075d576040517f08c379a000000000000000000000000000000000000000000000000000000000815260040161075490611dc3565b60405180910390fd5b80915050919050565b60008073ffffffffffffffffffffffffffffffffffffffff168273ffffffffffffffffffffffffffffffffffffffff1614156107d7576040517f08c379a00000000000000000000000000000000000000000000000000000000081526004016107ce90611da3565b60405180910390fd5b600360008373ffffffffffffffffffffffffffffffffffffffff1673ffffffffffffffffffffffffffffffffffffffff168152602001908152602001600020549050919050565b60606001805461082d906120a8565b80601f0160208091040260200160405190810160405280929190818152602001828054610859906120a8565b80156108a65780601f1061087b576101008083540402835291602001916108a6565b820191906000526020600020905b81548152906001019060200180831161088957829003601f168201915b5050505050905090565b6108c26108bb610b39565b8383611119565b5050565b6108d76108d1610b39565b83610dd4565b610916576040517f08c379a000000000000000000000000000000000000000000000000000000000815260040161090d90611e63565b60405180910390fd5b61092284848484611286565b50505050565b606061093382610acd565b610972576040517f08c379a000000000000000000000000000000000000000000000000000000000815260040161096990611e23565b60405180910390fd5b600061097c6112e2565b9050600081511161099c57604051806020016040528060008152506109c7565b806109a6846112f9565b6040516020016109b7929190611bfb565b6040516020818303038152906040525b915050919050565b6000600560008473ffffffffffffffffffffffffffffffffffffffff1673ffffffffffffffffffffffffffffffffffffffff16815260200190815260200160002060008373ffffffffffffffffffffffffffffffffffffffff1673ffffffffffffffffffffffffffffffffffffffff16815260200190815260200160002060009054906101000a900460ff16905092915050565b60007f01ffc9a7000000000000000000000000000000000000000000000000000000007bffffffffffffffffffffffffffffffffffffffffffffffffffffffff1916827bffffffffffffffffffffffffffffffffffffffffffffffffffffffff1916149050919050565b60008073ffffffffffffffffffffffffffffffffffffffff166002600084815260200190815260200160002060009054906101000a900473ffffffffffffffffffffffffffffffffffffffff1673ffffffffffffffffffffffffffffffffffffffff1614159050919050565b600033905090565b816004600083815260200190815260200160002060006101000a81548173ffffffffffffffffffffffffffffffffffffffff021916908373ffffffffffffffffffffffffffffffffffffffff160217905550808273ffffffffffffffffffffffffffffffffffffffff16610bb4836106b4565b73ffffffffffffffffffffffffffffffffffffffff167f8c5be1e5ebec7d5bd14f71427d1e84f3dd0314c0f7b2291e5b200ac8c7c3b92560405160405180910390a45050565b600073ffffffffffffffffffffffffffffffffffffffff168273ffffffffffffffffffffffffffffffffffffffff161415610c6a576040517f08c379a0000000000000000000000000000000000000000000000000000000008152600401610c6190611de3565b60405180910390fd5b610c7381610acd565b15610cb3576040517f08c379a0000000000000000000000000000000000000000000000000000000008152600401610caa90611d03565b60405180910390fd5b610cbf6000838361145a565b6001600360008473ffffffffffffffffffffffffffffffffffffffff1673ffffffffffffffffffffffffffffffffffffffff1681526020019081526020016000206000828254610d0f9190611f37565b92505081905550816002600083815260200190815260200160002060006101000a81548173ffffffffffffffffffffffffffffffffffffffff021916908373ffffffffffffffffffffffffffffffffffffffff160217905550808273ffffffffffffffffffffffffffffffffffffffff16600073ffffffffffffffffffffffffffffffffffffffff167fddf252ad1be2c89b69c2b068fc378daa952ba7f163c4a11628f55a4df523b3ef60405160405180910390a4610dd06000838361145f565b5050565b6000610ddf82610acd565b610e1e576040517f08c379a0000000000000000000000000000000000000000000000000000000008152600401610e1590611d63565b60405180910390fd5b6000610e29836106b4565b90508073ffffffffffffffffffffffffffffffffffffffff168473ffffffffffffffffffffffffffffffffffffffff161480610e9857508373ffffffffffffffffffffffffffffffffffffffff16610e8084610469565b73ffffffffffffffffffffffffffffffffffffffff16145b80610ea95750610ea881856109cf565b5b91505092915050565b8273ffffffffffffffffffffffffffffffffffffffff16610ed2826106b4565b73ffffffffffffffffffffffffffffffffffffffff1614610f28576040517f08c379a0000000000000000000000000000000000000000000000000000000008152600401610f1f90611ce3565b60405180910390fd5b600073ffffffffffffffffffffffffffffffffffffffff168273ffffffffffffffffffffffffffffffffffffffff161415610f98576040517f08c379a0000000000000000000000000000000000000000000000000000000008152600401610f8f90611d23565b60405180910390fd5b610fa383838361145a565b610fae600082610b41565b6001600360008573ffffffffffffffffffffffffffffffffffffffff1673ffffffffffffffffffffffffffffffffffffffff1681526020019081526020016000206000828254610ffe9190611fbe565b925050819055506001600360008473ffffffffffffffffffffffffffffffffffffffff1673ffffffffffffffffffffffffffffffffffffffff16815260200190815260200160002060008282546110559190611f37565b92505081905550816002600083815260200190815260200160002060006101000a81548173ffffffffffffffffffffffffffffffffffffffff021916908373ffffffffffffffffffffffffffffffffffffffff160217905550808273ffffffffffffffffffffffffffffffffffffffff168473ffffffffffffffffffffffffffffffffffffffff167fddf252ad1be2c89b69c2b068fc378daa952ba7f163c4a11628f55a4df523b3ef60405160405180910390a461111483838361145f565b505050565b8173ffffffffffffffffffffffffffffffffffffffff168373ffffffffffffffffffffffffffffffffffffffff161415611188576040517f08c379a000000000000000000000000000000000000000000000000000000000815260040161117f90611d43565b60405180910390fd5b80600560008573ffffffffffffffffffffffffffffffffffffffff1673ffffffffffffffffffffffffffffffffffffffff16815260200190815260200160002060008473ffffffffffffffffffffffffffffffffffffffff1673ffffffffffffffffffffffffffffffffffffffff16815260200190815260200160002060006101000a81548160ff0219169083151502179055508173ffffffffffffffffffffffffffffffffffffffff168373ffffffffffffffffffffffffffffffffffffffff167f17307eab39ab6107e8899845ad3d59bd9653f200f220920489ca2b5937696c31836040516112799190611c86565b60405180910390a3505050565b611291848484610eb2565b61129d84848484611464565b6112dc576040517f08c379a00000000000000000000000000000000000000000000000000000000081526004016112d390611cc3565b60405180910390fd5b50505050565b606060405180602001604052806000815250905090565b60606000821415611341576040518060400160405280600181526020017f30000000000000000000000000000000000000000000000000000000000000008152509050611455565b600082905060005b6000821461137357808061135c9061210b565b915050600a8261136c9190611f8d565b9150611349565b60008167ffffffffffffffff81111561138f5761138e612241565b5b6040519080825280601f01601f1916602001820160405280156113c15781602001600182028036833780820191505090505b5090505b6000851461144e576001826113da9190611fbe565b9150600a856113e99190612154565b60306113f59190611f37565b60f81b81838151811061140b5761140a612212565b5b60200101907effffffffffffffffffffffffffffffffffffffffffffffffffffffffffffff1916908160001a905350600a856114479190611f8d565b94506113c5565b8093505050505b919050565b505050565b505050565b60006114858473ffffffffffffffffffffffffffffffffffffffff166115fb565b156115ee578373ffffffffffffffffffffffffffffffffffffffff1663150b7a026114ae610b39565b8786866040518563ffffffff1660e01b81526004016114d09493929190611c3a565b602060405180830381600087803b1580156114ea57600080fd5b505af192505050801561151b57506040513d601f19601f8201168201806040525081019061151891906118e7565b60015b61159e573d806000811461154b576040519150601f19603f3d011682016040523d82523d6000602084013e611550565b606091505b50600081511415611596576040517f08c379a000000000000000000000000000000000000000000000000000000000815260040161158d90611cc3565b60405180910390fd5b805181602001fd5b63150b7a0260e01b7bffffffffffffffffffffffffffffffffffffffffffffffffffffffff1916817bffffffffffffffffffffffffffffffffffffffffffffffffffffffff1916149150506115f3565b600190505b949350505050565b6000808273ffffffffffffffffffffffffffffffffffffffff163b119050919050565b600061163161162c84611ec3565b611e9e565b90508281526020810184848401111561164d5761164c612275565b5b611658848285612066565b509392505050565b60008135905061166f81612675565b92915050565b6000813590506116848161268c565b92915050565b600081359050611699816126a3565b92915050565b6000815190506116ae816126a3565b92915050565b600082601f8301126116c9576116c8612270565b5b81356116d984826020860161161e565b91505092915050565b6000813590506116f1816126ba565b92915050565b60006020828403121561170d5761170c61227f565b5b600061171b84828501611660565b91505092915050565b6000806040838503121561173b5761173a61227f565b5b600061174985828601611660565b925050602061175a85828601611660565b9150509250929050565b60008060006060848603121561177d5761177c61227f565b5b600061178b86828701611660565b935050602061179c86828701611660565b92505060406117ad868287016116e2565b9150509250925092565b600080600080608085870312156117d1576117d061227f565b5b60006117df87828801611660565b94505060206117f087828801611660565b9350506040611801878288016116e2565b925050606085013567ffffffffffffffff8111156118225761182161227a565b5b61182e878288016116b4565b91505092959194509250565b600080604083850312156118515761185061227f565b5b600061185f85828601611660565b925050602061187085828601611675565b9150509250929050565b600080604083850312156118915761189061227f565b5b600061189f85828601611660565b92505060206118b0858286016116e2565b9150509250929050565b6000602082840312156118d0576118cf61227f565b5b60006118de8482850161168a565b91505092915050565b6000602082840312156118fd576118fc61227f565b5b600061190b8482850161169f565b91505092915050565b60006020828403121561192a5761192961227f565b5b6000611938848285016116e2565b91505092915050565b61194a81611ff2565b82525050565b61195981612004565b82525050565b600061196a82611ef4565b6119748185611f0a565b9350611984818560208601612075565b61198d81612284565b840191505092915050565b60006119a382611eff565b6119ad8185611f1b565b93506119bd818560208601612075565b6119c681612284565b840191505092915050565b60006119dc82611eff565b6119e68185611f2c565b93506119f6818560208601612075565b80840191505092915050565b6000611a0f603283611f1b565b9150611a1a82612295565b604082019050919050565b6000611a32602583611f1b565b9150611a3d826122e4565b604082019050919050565b6000611a55601c83611f1b565b9150611a6082612333565b602082019050919050565b6000611a78602483611f1b565b9150611a838261235c565b604082019050919050565b6000611a9b601983611f1b565b9150611aa6826123ab565b602082019050919050565b6000611abe602c83611f1b565b9150611ac9826123d4565b604082019050919050565b6000611ae1603883611f1b565b9150611aec82612423565b604082019050919050565b6000611b04602a83611f1b565b9150611b0f82612472565b604082019050919050565b6000611b27602983611f1b565b9150611b32826124c1565b604082019050919050565b6000611b4a602083611f1b565b9150611b5582612510565b602082019050919050565b6000611b6d602c83611f1b565b9150611b7882612539565b604082019050919050565b6000611b90602f83611f1b565b9150611b9b82612588565b604082019050919050565b6000611bb3602183611f1b565b9150611bbe826125d7565b604082019050919050565b6000611bd6603183611f1b565b9150611be182612626565b604082019050919050565b611bf58161205c565b82525050565b6000611c0782856119d1565b9150611c1382846119d1565b91508190509392505050565b6000602082019050611c346000830184611941565b92915050565b6000608082019050611c4f6000830187611941565b611c5c6020830186611941565b611c696040830185611bec565b8181036060830152611c7b818461195f565b905095945050505050565b6000602082019050611c9b6000830184611950565b92915050565b60006020820190508181036000830152611cbb8184611998565b905092915050565b60006020820190508181036000830152611cdc81611a02565b9050919050565b60006020820190508181036000830152611cfc81611a25565b9050919050565b60006020820190508181036000830152611d1c81611a48565b9050919050565b60006020820190508181036000830152611d3c81611a6b565b9050919050565b60006020820190508181036000830152611d5c81611a8e565b9050919050565b60006020820190508181036000830152611d7c81611ab1565b9050919050565b60006020820190508181036000830152611d9c81611ad4565b9050919050565b60006020820190508181036000830152611dbc81611af7565b9050919050565b60006020820190508181036000830152611ddc81611b1a565b9050919050565b60006020820190508181036000830152611dfc81611b3d565b9050919050565b60006020820190508181036000830152611e1c81611b60565b9050919050565b60006020820190508181036000830152611e3c81611b83565b9050919050565b60006020820190508181036000830152611e5c81611ba6565b9050919050565b60006020820190508181036000830152611e7c81611bc9565b9050919050565b6000602082019050611e986000830184611bec565b92915050565b6000611ea8611eb9565b9050611eb482826120da565b919050565b6000604051905090565b600067ffffffffffffffff821115611ede57611edd612241565b5b611ee782612284565b9050602081019050919050565b600081519050919050565b600081519050919050565b600082825260208201905092915050565b600082825260208201905092915050565b600081905092915050565b6000611f428261205c565b9150611f4d8361205c565b9250827fffffffffffffffffffffffffffffffffffffffffffffffffffffffffffffffff03821115611f8257611f81612185565b5b828201905092915050565b6000611f988261205c565b9150611fa38361205c565b925082611fb357611fb26121b4565b5b828204905092915050565b6000611fc98261205c565b9150611fd48361205c565b925082821015611fe757611fe6612185565b5b828203905092915050565b6000611ffd8261203c565b9050919050565b60008115159050919050565b60007fffffffff0000000000000000000000000000000000000000000000000000000082169050919050565b600073ffffffffffffffffffffffffffffffffffffffff82169050919050565b6000819050919050565b82818337600083830152505050565b60005b83811015612093578082015181840152602081019050612078565b838111156120a2576000848401525b50505050565b600060028204905060018216806120c057607f821691505b602082108114156120d4576120d36121e3565b5b50919050565b6120e382612284565b810181811067ffffffffffffffff8211171561210257612101612241565b5b80604052505050565b60006121168261205c565b91507fffffffffffffffffffffffffffffffffffffffffffffffffffffffffffffffff82141561214957612148612185565b5b600182019050919050565b600061215f8261205c565b915061216a8361205c565b92508261217a576121796121b4565b5b828206905092915050565b7f4e487b7100000000000000000000000000000000000000000000000000000000600052601160045260246000fd5b7f4e487b7100000000000000000000000000000000000000000000000000000000600052601260045260246000fd5b7f4e487b7100000000000000000000000000000000000000000000000000000000600052602260045260246000fd5b7f4e487b7100000000000000000000000000000000000000000000000000000000600052603260045260246000fd5b7f4e487b7100000000000000000000000000000000000000000000000000000000600052604160045260246000fd5b600080fd5b600080fd5b600080fd5b600080fd5b6000601f19601f8301169050919050565b7f4552433732313a207472616e7366657220746f206e6f6e20455243373231526560008201527f63656976657220696d706c656d656e7465720000000000000000000000000000602082015250565b7f4552433732313a207472616e736665722066726f6d20696e636f72726563742060008201527f6f776e6572000000000000000000000000000000000000000000000000000000602082015250565b7f4552433732313a20746f6b656e20616c7265616479206d696e74656400000000600082015250565b7f4552433732313a207472616e7366657220746f20746865207a65726f2061646460008201527f7265737300000000000000000000000000000000000000000000000000000000602082015250565b7f4552433732313a20617070726f766520746f2063616c6c657200000000000000600082015250565b7f4552433732313a206f70657261746f7220717565727920666f72206e6f6e657860008201527f697374656e7420746f6b656e0000000000000000000000000000000000000000602082015250565b7f4552433732313a20617070726f76652063616c6c6572206973206e6f74206f7760008201527f6e6572206e6f7220617070726f76656420666f7220616c6c0000000000000000602082015250565b7f4552433732313a2062616c616e636520717565727920666f7220746865207a6560008201527f726f206164647265737300000000000000000000000000000000000000000000602082015250565b7f4552433732313a206f776e657220717565727920666f72206e6f6e657869737460008201527f656e7420746f6b656e0000000000000000000000000000000000000000000000602082015250565b7f4552433732313a206d696e7420746f20746865207a65726f2061646472657373600082015250565b7f4552433732313a20617070726f76656420717565727920666f72206e6f6e657860008201527f697374656e7420746f6b656e0000000000000000000000000000000000000000602082015250565b7f4552433732314d657461646174613a2055524920717565727920666f72206e6f60008201527f6e6578697374656e7420746f6b656e0000000000000000000000000000000000602082015250565b7f4552433732313a20617070726f76616c20746f2063757272656e74206f776e6560008201527f7200000000000000000000000000000000000000000000000000000000000000602082015250565b7f4552433732313a207472616e736665722063616c6c6572206973206e6f74206f60008201527f776e6572206e6f7220617070726f766564000000000000000000000000000000602082015250565b61267e81611ff2565b811461268957600080fd5b50565b61269581612004565b81146126a057600080fd5b50565b6126ac81612010565b81146126b757600080fd5b50565b6126c38161205c565b81146126ce57600080fd5b5056fea2646970667358221220740dbb458014d4ef9286d5ab238f7961b1630312ca644c782efa105887c41a0464736f6c63430008050033",
  "immutableReferences": {},
  "source": "// SPDX-License-Identifier: MIT\r\npragma solidity ^0.8.0;\r\n\r\nimport \"@openzeppelin/contracts/token/ERC721/ERC721.sol\";\r\n\r\ncontract NFT is ERC721 {\r\n\tconstructor() ERC721(\"Coolest NFT\", \"NFT\") {}\r\n\r\n\tuint private _tokenId = 0;\r\n\r\n\tfunction mint() external returns (uint) {\r\n\t\t_tokenId++;\r\n\t\t_mint(msg.sender, _tokenId);\r\n\t\treturn _tokenId;\r\n\t}\r\n}",
  "sourcePath": "C:/Users/ather/Desktop/BlockChain Project/DAPP/My First/src/contracts/NFT.sol",
  "compiler": {
    "name": "solc",
    "version": "0.8.5+commit.a4f2e591.Emscripten.clang"
  },
  "schemaVersion": "3.2.3",
  "updatedAt": "2022-03-27T12:40:30.905Z",
  "networkType": "ethereum",
  "devdoc": {
    "kind": "dev",
    "methods": {
      "approve(address,uint256)": {
        "details": "See {IERC721-approve}."
      },
      "balanceOf(address)": {
        "details": "See {IERC721-balanceOf}."
      },
      "getApproved(uint256)": {
        "details": "See {IERC721-getApproved}."
      },
      "isApprovedForAll(address,address)": {
        "details": "See {IERC721-isApprovedForAll}."
      },
      "name()": {
        "details": "See {IERC721Metadata-name}."
      },
      "ownerOf(uint256)": {
        "details": "See {IERC721-ownerOf}."
      },
      "safeTransferFrom(address,address,uint256)": {
        "details": "See {IERC721-safeTransferFrom}."
      },
      "safeTransferFrom(address,address,uint256,bytes)": {
        "details": "See {IERC721-safeTransferFrom}."
      },
      "setApprovalForAll(address,bool)": {
        "details": "See {IERC721-setApprovalForAll}."
      },
      "supportsInterface(bytes4)": {
        "details": "See {IERC165-supportsInterface}."
      },
      "symbol()": {
        "details": "See {IERC721Metadata-symbol}."
      },
      "tokenURI(uint256)": {
        "details": "See {IERC721Metadata-tokenURI}."
      },
      "transferFrom(address,address,uint256)": {
        "details": "See {IERC721-transferFrom}."
      }
    },
    "version": 1
  },
  "userdoc": {
    "kind": "user",
    "methods": {},
    "version": 1
  }
}